{
  "address": "0xA2c37661cEFBFF13EaF9CA3F2E96e09f50c0A516",
  "abi": [
    {
      "inputs": [
        {
          "internalType": "string",
          "name": "_name",
          "type": "string"
        },
        {
          "internalType": "string",
          "name": "_symbol",
          "type": "string"
        }
      ],
      "stateMutability": "nonpayable",
      "type": "constructor"
    },
    {
      "anonymous": false,
      "inputs": [
        {
          "indexed": true,
          "internalType": "address",
          "name": "owner",
          "type": "address"
        },
        {
          "indexed": true,
          "internalType": "address",
          "name": "approved",
          "type": "address"
        },
        {
          "indexed": true,
          "internalType": "uint256",
          "name": "tokenId",
          "type": "uint256"
        }
      ],
      "name": "Approval",
      "type": "event"
    },
    {
      "anonymous": false,
      "inputs": [
        {
          "indexed": true,
          "internalType": "address",
          "name": "owner",
          "type": "address"
        },
        {
          "indexed": true,
          "internalType": "address",
          "name": "operator",
          "type": "address"
        },
        {
          "indexed": false,
          "internalType": "bool",
          "name": "approved",
          "type": "bool"
        }
      ],
      "name": "ApprovalForAll",
      "type": "event"
    },
    {
      "anonymous": false,
      "inputs": [
        {
          "indexed": true,
          "internalType": "address",
          "name": "previousOwner",
          "type": "address"
        },
        {
          "indexed": true,
          "internalType": "address",
          "name": "newOwner",
          "type": "address"
        }
      ],
      "name": "OwnershipTransferred",
      "type": "event"
    },
    {
      "anonymous": false,
      "inputs": [
        {
          "indexed": true,
          "internalType": "address",
          "name": "from",
          "type": "address"
        },
        {
          "indexed": true,
          "internalType": "address",
          "name": "to",
          "type": "address"
        },
        {
          "indexed": true,
          "internalType": "uint256",
          "name": "tokenId",
          "type": "uint256"
        }
      ],
      "name": "Transfer",
      "type": "event"
    },
    {
      "inputs": [
        {
          "internalType": "uint256",
          "name": "_tierPrice",
          "type": "uint256"
        },
        {
          "internalType": "uint256",
          "name": "_tierMaxQuantity",
          "type": "uint256"
        }
      ],
      "name": "addNewTier",
      "outputs": [],
      "stateMutability": "nonpayable",
      "type": "function"
    },
    {
      "inputs": [
        {
          "internalType": "address",
          "name": "to",
          "type": "address"
        },
        {
          "internalType": "uint256",
          "name": "tokenId",
          "type": "uint256"
        }
      ],
      "name": "approve",
      "outputs": [],
      "stateMutability": "nonpayable",
      "type": "function"
    },
    {
      "inputs": [
        {
          "internalType": "address",
          "name": "owner",
          "type": "address"
        }
      ],
      "name": "balanceOf",
      "outputs": [
        {
          "internalType": "uint256",
          "name": "",
          "type": "uint256"
        }
      ],
      "stateMutability": "view",
      "type": "function"
    },
    {
      "inputs": [
        {
          "internalType": "uint256",
          "name": "tokenId",
          "type": "uint256"
        }
      ],
      "name": "getApproved",
      "outputs": [
        {
          "internalType": "address",
          "name": "",
          "type": "address"
        }
      ],
      "stateMutability": "view",
      "type": "function"
    },
    {
      "inputs": [
        {
          "internalType": "uint256",
          "name": "_tierId",
          "type": "uint256"
        }
      ],
      "name": "getTierDetails",
      "outputs": [
        {
          "internalType": "uint256",
          "name": "",
          "type": "uint256"
        },
        {
          "internalType": "uint256",
          "name": "",
          "type": "uint256"
        }
      ],
      "stateMutability": "view",
      "type": "function"
    },
    {
      "inputs": [
        {
          "internalType": "address",
          "name": "owner",
          "type": "address"
        },
        {
          "internalType": "address",
          "name": "operator",
          "type": "address"
        }
      ],
      "name": "isApprovedForAll",
      "outputs": [
        {
          "internalType": "bool",
          "name": "",
          "type": "bool"
        }
      ],
      "stateMutability": "view",
      "type": "function"
    },
    {
      "inputs": [
        {
          "internalType": "uint256",
          "name": "",
          "type": "uint256"
        }
      ],
      "name": "isUsed",
      "outputs": [
        {
          "internalType": "bool",
          "name": "",
          "type": "bool"
        }
      ],
      "stateMutability": "view",
      "type": "function"
    },
    {
      "inputs": [
        {
          "internalType": "uint256",
          "name": "_tierIdentifier",
          "type": "uint256"
        },
        {
          "internalType": "uint256",
          "name": "_quantity",
          "type": "uint256"
        }
      ],
      "name": "mintTicket",
      "outputs": [],
      "stateMutability": "payable",
      "type": "function"
    },
    {
      "inputs": [],
      "name": "name",
      "outputs": [
        {
          "internalType": "string",
          "name": "",
          "type": "string"
        }
      ],
      "stateMutability": "view",
      "type": "function"
    },
    {
      "inputs": [],
      "name": "owner",
      "outputs": [
        {
          "internalType": "address",
          "name": "",
          "type": "address"
        }
      ],
      "stateMutability": "view",
      "type": "function"
    },
    {
      "inputs": [
        {
          "internalType": "uint256",
          "name": "tokenId",
          "type": "uint256"
        }
      ],
      "name": "ownerOf",
      "outputs": [
        {
          "internalType": "address",
          "name": "",
          "type": "address"
        }
      ],
      "stateMutability": "view",
      "type": "function"
    },
    {
      "inputs": [
        {
          "internalType": "address",
          "name": "_receiver",
          "type": "address"
        },
        {
          "internalType": "uint256",
          "name": "_tier",
          "type": "uint256"
        },
        {
          "internalType": "uint256",
          "name": "_quantity",
          "type": "uint256"
        }
      ],
      "name": "permissionedMint",
      "outputs": [],
      "stateMutability": "nonpayable",
      "type": "function"
    },
    {
      "inputs": [],
      "name": "renounceOwnership",
      "outputs": [],
      "stateMutability": "nonpayable",
      "type": "function"
    },
    {
      "inputs": [
        {
          "internalType": "address",
          "name": "from",
          "type": "address"
        },
        {
          "internalType": "address",
          "name": "to",
          "type": "address"
        },
        {
          "internalType": "uint256",
          "name": "tokenId",
          "type": "uint256"
        }
      ],
      "name": "safeTransferFrom",
      "outputs": [],
      "stateMutability": "nonpayable",
      "type": "function"
    },
    {
      "inputs": [
        {
          "internalType": "address",
          "name": "from",
          "type": "address"
        },
        {
          "internalType": "address",
          "name": "to",
          "type": "address"
        },
        {
          "internalType": "uint256",
          "name": "tokenId",
          "type": "uint256"
        },
        {
          "internalType": "bytes",
          "name": "data",
          "type": "bytes"
        }
      ],
      "name": "safeTransferFrom",
      "outputs": [],
      "stateMutability": "nonpayable",
      "type": "function"
    },
    {
      "inputs": [
        {
          "internalType": "address",
          "name": "operator",
          "type": "address"
        },
        {
          "internalType": "bool",
          "name": "approved",
          "type": "bool"
        }
      ],
      "name": "setApprovalForAll",
      "outputs": [],
      "stateMutability": "nonpayable",
      "type": "function"
    },
    {
      "inputs": [
        {
          "internalType": "bytes4",
          "name": "interfaceId",
          "type": "bytes4"
        }
      ],
      "name": "supportsInterface",
      "outputs": [
        {
          "internalType": "bool",
          "name": "",
          "type": "bool"
        }
      ],
      "stateMutability": "view",
      "type": "function"
    },
    {
      "inputs": [],
      "name": "symbol",
      "outputs": [
        {
          "internalType": "string",
          "name": "",
          "type": "string"
        }
      ],
      "stateMutability": "view",
      "type": "function"
    },
    {
      "inputs": [
        {
          "internalType": "uint256",
          "name": "",
          "type": "uint256"
        }
      ],
      "name": "ticketTiers",
      "outputs": [
        {
          "internalType": "bytes32",
          "name": "tierId",
          "type": "bytes32"
        },
        {
          "internalType": "uint256",
          "name": "tierPrice",
          "type": "uint256"
        },
        {
          "internalType": "uint256",
          "name": "tierMaxQuantity",
          "type": "uint256"
        },
        {
          "internalType": "uint256",
          "name": "mintedSupply",
          "type": "uint256"
        }
      ],
      "stateMutability": "view",
      "type": "function"
    },
    {
      "inputs": [],
      "name": "tierCounter",
      "outputs": [
        {
          "internalType": "uint256",
          "name": "",
          "type": "uint256"
        }
      ],
      "stateMutability": "view",
      "type": "function"
    },
    {
      "inputs": [
        {
          "internalType": "uint256",
          "name": "tokenId",
          "type": "uint256"
        }
      ],
      "name": "tokenURI",
      "outputs": [
        {
          "internalType": "string",
          "name": "",
          "type": "string"
        }
      ],
      "stateMutability": "view",
      "type": "function"
    },
    {
      "inputs": [],
      "name": "totalSupply",
      "outputs": [
        {
          "internalType": "uint256",
          "name": "",
          "type": "uint256"
        }
      ],
      "stateMutability": "view",
      "type": "function"
    },
    {
      "inputs": [
        {
          "internalType": "address",
          "name": "from",
          "type": "address"
        },
        {
          "internalType": "address",
          "name": "to",
          "type": "address"
        },
        {
          "internalType": "uint256",
          "name": "tokenId",
          "type": "uint256"
        }
      ],
      "name": "transferFrom",
      "outputs": [],
      "stateMutability": "nonpayable",
      "type": "function"
    },
    {
      "inputs": [
        {
          "internalType": "address",
          "name": "newOwner",
          "type": "address"
        }
      ],
      "name": "transferOwnership",
      "outputs": [],
      "stateMutability": "nonpayable",
      "type": "function"
    },
    {
      "inputs": [],
      "name": "withdraw",
      "outputs": [],
      "stateMutability": "nonpayable",
      "type": "function"
    }
  ],
  "transactionHash": "0x3a8ae3a69246d14c167cefda96f1a3651aaadc58292371e1cd0c0b1529d2b850",
  "args": [
    "Viva Session Ticket",
    "VST"
  ],
  "numDeployments": 2,
  "solcInputHash": "4a0cbd5d59f1bb80a28bac1e98d9256e",
  "bytecode": "0x60806040523480156200001157600080fd5b50604051620037b2380380620037b28339818101604052810190620000379190620002e8565b818181600090816200004a9190620005b8565b5080600190816200005c9190620005b8565b5050506200007f620000736200008760201b60201c565b6200008f60201b60201c565b50506200069f565b600033905090565b6000600660009054906101000a900473ffffffffffffffffffffffffffffffffffffffff16905081600660006101000a81548173ffffffffffffffffffffffffffffffffffffffff021916908373ffffffffffffffffffffffffffffffffffffffff1602179055508173ffffffffffffffffffffffffffffffffffffffff168173ffffffffffffffffffffffffffffffffffffffff167f8be0079c531659141344cd1fd0a4f28419497f9722a3daafe3b4186f6b6457e060405160405180910390a35050565b6000604051905090565b600080fd5b600080fd5b600080fd5b600080fd5b6000601f19601f8301169050919050565b7f4e487b7100000000000000000000000000000000000000000000000000000000600052604160045260246000fd5b620001be8262000173565b810181811067ffffffffffffffff82111715620001e057620001df62000184565b5b80604052505050565b6000620001f562000155565b9050620002038282620001b3565b919050565b600067ffffffffffffffff82111562000226576200022562000184565b5b620002318262000173565b9050602081019050919050565b60005b838110156200025e57808201518184015260208101905062000241565b60008484015250505050565b6000620002816200027b8462000208565b620001e9565b905082815260208101848484011115620002a0576200029f6200016e565b5b620002ad8482856200023e565b509392505050565b600082601f830112620002cd57620002cc62000169565b5b8151620002df8482602086016200026a565b91505092915050565b600080604083850312156200030257620003016200015f565b5b600083015167ffffffffffffffff81111562000323576200032262000164565b5b6200033185828601620002b5565b925050602083015167ffffffffffffffff81111562000355576200035462000164565b5b6200036385828601620002b5565b9150509250929050565b600081519050919050565b7f4e487b7100000000000000000000000000000000000000000000000000000000600052602260045260246000fd5b60006002820490506001821680620003c057607f821691505b602082108103620003d657620003d562000378565b5b50919050565b60008190508160005260206000209050919050565b60006020601f8301049050919050565b600082821b905092915050565b600060088302620004407fffffffffffffffffffffffffffffffffffffffffffffffffffffffffffffffff8262000401565b6200044c868362000401565b95508019841693508086168417925050509392505050565b6000819050919050565b6000819050919050565b600062000499620004936200048d8462000464565b6200046e565b62000464565b9050919050565b6000819050919050565b620004b58362000478565b620004cd620004c482620004a0565b8484546200040e565b825550505050565b600090565b620004e4620004d5565b620004f1818484620004aa565b505050565b5b8181101562000519576200050d600082620004da565b600181019050620004f7565b5050565b601f82111562000568576200053281620003dc565b6200053d84620003f1565b810160208510156200054d578190505b620005656200055c85620003f1565b830182620004f6565b50505b505050565b600082821c905092915050565b60006200058d600019846008026200056d565b1980831691505092915050565b6000620005a883836200057a565b9150826002028217905092915050565b620005c3826200036d565b67ffffffffffffffff811115620005df57620005de62000184565b5b620005eb8254620003a7565b620005f88282856200051d565b600060209050601f8311600181146200063057600084156200061b578287015190505b6200062785826200059a565b86555062000697565b601f1984166200064086620003dc565b60005b828110156200066a5784890151825560018201915060208501945060208101905062000643565b868310156200068a578489015162000686601f8916826200057a565b8355505b6001600288020188555050505b505050505050565b61310380620006af6000396000f3fe6080604052600436106101665760003560e01c806370a08231116100d1578063a22cb4651161008a578063c87b56dd11610064578063c87b56dd14610531578063ca0f4ec41461056e578063e985e9c514610597578063f2fde38b146105d457610166565b8063a22cb465146104b6578063b063c84e146104df578063b88d4fde1461050857610166565b806370a082311461038e578063715018a6146103cb5780638da5cb5b146103e25780639236afca1461040d578063944964cf1461044d57806395d89b411461048b57610166565b806323b872dd1161012357806323b872dd1461028f578063336ccba5146102b85780633ccfd60b146102f557806342842e0e1461030c5780635c300eba146103355780636352211e1461035157610166565b806301ffc9a71461016b57806306fdde03146101a8578063081812fc146101d3578063095ea7b31461021057806311d6a1071461023957806318160ddd14610264575b600080fd5b34801561017757600080fd5b50610192600480360381019061018d9190611e84565b6105fd565b60405161019f9190611ecc565b60405180910390f35b3480156101b457600080fd5b506101bd6106df565b6040516101ca9190611f77565b60405180910390f35b3480156101df57600080fd5b506101fa60048036038101906101f59190611fcf565b610771565b604051610207919061203d565b60405180910390f35b34801561021c57600080fd5b5061023760048036038101906102329190612084565b6107b7565b005b34801561024557600080fd5b5061024e6108ce565b60405161025b91906120d3565b60405180910390f35b34801561027057600080fd5b506102796108d4565b60405161028691906120d3565b60405180910390f35b34801561029b57600080fd5b506102b660048036038101906102b191906120ee565b6108de565b005b3480156102c457600080fd5b506102df60048036038101906102da9190611fcf565b61093e565b6040516102ec9190611ecc565b60405180910390f35b34801561030157600080fd5b5061030a61095e565b005b34801561031857600080fd5b50610333600480360381019061032e91906120ee565b6109b6565b005b61034f600480360381019061034a9190612141565b6109d6565b005b34801561035d57600080fd5b5061037860048036038101906103739190611fcf565b610b20565b604051610385919061203d565b60405180910390f35b34801561039a57600080fd5b506103b560048036038101906103b09190612181565b610bd1565b6040516103c291906120d3565b60405180910390f35b3480156103d757600080fd5b506103e0610c88565b005b3480156103ee57600080fd5b506103f7610c9c565b604051610404919061203d565b60405180910390f35b34801561041957600080fd5b50610434600480360381019061042f9190611fcf565b610cc6565b60405161044494939291906121c7565b60405180910390f35b34801561045957600080fd5b50610474600480360381019061046f9190611fcf565b610cf6565b60405161048292919061220c565b60405180910390f35b34801561049757600080fd5b506104a0610d57565b6040516104ad9190611f77565b60405180910390f35b3480156104c257600080fd5b506104dd60048036038101906104d89190612261565b610de9565b005b3480156104eb57600080fd5b5061050660048036038101906105019190612141565b610dff565b005b34801561051457600080fd5b5061052f600480360381019061052a91906123d6565b610ebd565b005b34801561053d57600080fd5b5061055860048036038101906105539190611fcf565b610f1f565b6040516105659190611f77565b60405180910390f35b34801561057a57600080fd5b5061059560048036038101906105909190612459565b610f87565b005b3480156105a357600080fd5b506105be60048036038101906105b991906124ac565b610f9f565b6040516105cb9190611ecc565b60405180910390f35b3480156105e057600080fd5b506105fb60048036038101906105f69190612181565b611033565b005b60007f80ac58cd000000000000000000000000000000000000000000000000000000007bffffffffffffffffffffffffffffffffffffffffffffffffffffffff1916827bffffffffffffffffffffffffffffffffffffffffffffffffffffffff191614806106c857507f5b5e139f000000000000000000000000000000000000000000000000000000007bffffffffffffffffffffffffffffffffffffffffffffffffffffffff1916827bffffffffffffffffffffffffffffffffffffffffffffffffffffffff1916145b806106d857506106d7826110b6565b5b9050919050565b6060600080546106ee9061251b565b80601f016020809104026020016040519081016040528092919081815260200182805461071a9061251b565b80156107675780601f1061073c57610100808354040283529160200191610767565b820191906000526020600020905b81548152906001019060200180831161074a57829003601f168201915b5050505050905090565b600061077c82611120565b6004600083815260200190815260200160002060009054906101000a900473ffffffffffffffffffffffffffffffffffffffff169050919050565b60006107c282610b20565b90508073ffffffffffffffffffffffffffffffffffffffff168373ffffffffffffffffffffffffffffffffffffffff1603610832576040517f08c379a0000000000000000000000000000000000000000000000000000000008152600401610829906125be565b60405180910390fd5b8073ffffffffffffffffffffffffffffffffffffffff1661085161116b565b73ffffffffffffffffffffffffffffffffffffffff161480610880575061087f8161087a61116b565b610f9f565b5b6108bf576040517f08c379a00000000000000000000000000000000000000000000000000000000081526004016108b690612650565b60405180910390fd5b6108c98383611173565b505050565b60075481565b6000600a54905090565b6108ef6108e961116b565b8261122c565b61092e576040517f08c379a0000000000000000000000000000000000000000000000000000000008152600401610925906126e2565b60405180910390fd5b6109398383836112c1565b505050565b60096020528060005260406000206000915054906101000a900460ff1681565b610966611527565b61096e610c9c565b73ffffffffffffffffffffffffffffffffffffffff166108fc479081150290604051600060405180830381858888f193505050501580156109b3573d6000803e3d6000fd5b50565b6109d183838360405180602001604052806000815250610ebd565b505050565b60006008600084815260200190815260200160002060405180608001604052908160008201548152602001600182015481526020016002820154815260200160038201548152505090506000801b816000015103610a69576040517f08c379a0000000000000000000000000000000000000000000000000000000008152600401610a609061274e565b60405180910390fd5b34828260200151610a7a919061279d565b14610aba576040517f08c379a0000000000000000000000000000000000000000000000000000000008152600401610ab19061282b565b60405180910390fd5b8060400151828260600151610acf919061284b565b1115610b10576040517f08c379a0000000000000000000000000000000000000000000000000000000008152600401610b07906128cb565b60405180910390fd5b610b1b3384846115a5565b505050565b6000806002600084815260200190815260200160002060009054906101000a900473ffffffffffffffffffffffffffffffffffffffff169050600073ffffffffffffffffffffffffffffffffffffffff168173ffffffffffffffffffffffffffffffffffffffff1603610bc8576040517f08c379a0000000000000000000000000000000000000000000000000000000008152600401610bbf90612937565b60405180910390fd5b80915050919050565b60008073ffffffffffffffffffffffffffffffffffffffff168273ffffffffffffffffffffffffffffffffffffffff1603610c41576040517f08c379a0000000000000000000000000000000000000000000000000000000008152600401610c38906129c9565b60405180910390fd5b600360008373ffffffffffffffffffffffffffffffffffffffff1673ffffffffffffffffffffffffffffffffffffffff168152602001908152602001600020549050919050565b610c90611527565b610c9a600061161a565b565b6000600660009054906101000a900473ffffffffffffffffffffffffffffffffffffffff16905090565b60086020528060005260406000206000915090508060000154908060010154908060020154908060030154905084565b6000806000600860008581526020019081526020016000206040518060800160405290816000820154815260200160018201548152602001600282015481526020016003820154815250509050806020015181604001519250925050915091565b606060018054610d669061251b565b80601f0160208091040260200160405190810160405280929190818152602001828054610d929061251b565b8015610ddf5780601f10610db457610100808354040283529160200191610ddf565b820191906000526020600020905b815481529060010190602001808311610dc257829003601f168201915b5050505050905090565b610dfb610df461116b565b83836116e0565b5050565b6000803642600754604051602001610e1a9493929190612a27565b6040516020818303038152906040528051906020012090506000600754905060076000815480929190610e4c90612a67565b919050555060006040518060800160405280848152602001868152602001858152602001600081525090508060086000848152602001908152602001600020600082015181600001556020820151816001015560408201518160020155606082015181600301559050505050505050565b610ece610ec861116b565b8361122c565b610f0d576040517f08c379a0000000000000000000000000000000000000000000000000000000008152600401610f04906126e2565b60405180910390fd5b610f198484848461184c565b50505050565b6060610f2a82611120565b6000610f346118a8565b90506000815111610f545760405180602001604052806000815250610f7f565b80610f5e846118bf565b604051602001610f6f929190612aeb565b6040516020818303038152906040525b915050919050565b610f8f611527565b610f9a8383836115a5565b505050565b6000600560008473ffffffffffffffffffffffffffffffffffffffff1673ffffffffffffffffffffffffffffffffffffffff16815260200190815260200160002060008373ffffffffffffffffffffffffffffffffffffffff1673ffffffffffffffffffffffffffffffffffffffff16815260200190815260200160002060009054906101000a900460ff16905092915050565b61103b611527565b600073ffffffffffffffffffffffffffffffffffffffff168173ffffffffffffffffffffffffffffffffffffffff16036110aa576040517f08c379a00000000000000000000000000000000000000000000000000000000081526004016110a190612b81565b60405180910390fd5b6110b38161161a565b50565b60007f01ffc9a7000000000000000000000000000000000000000000000000000000007bffffffffffffffffffffffffffffffffffffffffffffffffffffffff1916827bffffffffffffffffffffffffffffffffffffffffffffffffffffffff1916149050919050565b61112981611a1f565b611168576040517f08c379a000000000000000000000000000000000000000000000000000000000815260040161115f90612937565b60405180910390fd5b50565b600033905090565b816004600083815260200190815260200160002060006101000a81548173ffffffffffffffffffffffffffffffffffffffff021916908373ffffffffffffffffffffffffffffffffffffffff160217905550808273ffffffffffffffffffffffffffffffffffffffff166111e683610b20565b73ffffffffffffffffffffffffffffffffffffffff167f8c5be1e5ebec7d5bd14f71427d1e84f3dd0314c0f7b2291e5b200ac8c7c3b92560405160405180910390a45050565b60008061123883610b20565b90508073ffffffffffffffffffffffffffffffffffffffff168473ffffffffffffffffffffffffffffffffffffffff16148061127a57506112798185610f9f565b5b806112b857508373ffffffffffffffffffffffffffffffffffffffff166112a084610771565b73ffffffffffffffffffffffffffffffffffffffff16145b91505092915050565b8273ffffffffffffffffffffffffffffffffffffffff166112e182610b20565b73ffffffffffffffffffffffffffffffffffffffff1614611337576040517f08c379a000000000000000000000000000000000000000000000000000000000815260040161132e90612c13565b60405180910390fd5b600073ffffffffffffffffffffffffffffffffffffffff168273ffffffffffffffffffffffffffffffffffffffff16036113a6576040517f08c379a000000000000000000000000000000000000000000000000000000000815260040161139d90612ca5565b60405180910390fd5b6113b1838383611a8b565b6113bc600082611173565b6001600360008573ffffffffffffffffffffffffffffffffffffffff1673ffffffffffffffffffffffffffffffffffffffff168152602001908152602001600020600082825461140c9190612cc5565b925050819055506001600360008473ffffffffffffffffffffffffffffffffffffffff1673ffffffffffffffffffffffffffffffffffffffff1681526020019081526020016000206000828254611463919061284b565b92505081905550816002600083815260200190815260200160002060006101000a81548173ffffffffffffffffffffffffffffffffffffffff021916908373ffffffffffffffffffffffffffffffffffffffff160217905550808273ffffffffffffffffffffffffffffffffffffffff168473ffffffffffffffffffffffffffffffffffffffff167fddf252ad1be2c89b69c2b068fc378daa952ba7f163c4a11628f55a4df523b3ef60405160405180910390a4611522838383611a90565b505050565b61152f61116b565b73ffffffffffffffffffffffffffffffffffffffff1661154d610c9c565b73ffffffffffffffffffffffffffffffffffffffff16146115a3576040517f08c379a000000000000000000000000000000000000000000000000000000000815260040161159a90612d45565b60405180910390fd5b565b806008600084815260200190815260200160002060030160008282546115cb919061284b565b9250508190555060005b8181101561161457600a60008154809291906115f090612a67565b919050555061160184600a54611a95565b808061160c90612a67565b9150506115d5565b50505050565b6000600660009054906101000a900473ffffffffffffffffffffffffffffffffffffffff16905081600660006101000a81548173ffffffffffffffffffffffffffffffffffffffff021916908373ffffffffffffffffffffffffffffffffffffffff1602179055508173ffffffffffffffffffffffffffffffffffffffff168173ffffffffffffffffffffffffffffffffffffffff167f8be0079c531659141344cd1fd0a4f28419497f9722a3daafe3b4186f6b6457e060405160405180910390a35050565b8173ffffffffffffffffffffffffffffffffffffffff168373ffffffffffffffffffffffffffffffffffffffff160361174e576040517f08c379a000000000000000000000000000000000000000000000000000000000815260040161174590612db1565b60405180910390fd5b80600560008573ffffffffffffffffffffffffffffffffffffffff1673ffffffffffffffffffffffffffffffffffffffff16815260200190815260200160002060008473ffffffffffffffffffffffffffffffffffffffff1673ffffffffffffffffffffffffffffffffffffffff16815260200190815260200160002060006101000a81548160ff0219169083151502179055508173ffffffffffffffffffffffffffffffffffffffff168373ffffffffffffffffffffffffffffffffffffffff167f17307eab39ab6107e8899845ad3d59bd9653f200f220920489ca2b5937696c318360405161183f9190611ecc565b60405180910390a3505050565b6118578484846112c1565b61186384848484611c6e565b6118a2576040517f08c379a000000000000000000000000000000000000000000000000000000000815260040161189990612e43565b60405180910390fd5b50505050565b606060405180602001604052806000815250905090565b606060008203611906576040518060400160405280600181526020017f30000000000000000000000000000000000000000000000000000000000000008152509050611a1a565b600082905060005b6000821461193857808061192190612a67565b915050600a826119319190612e92565b915061190e565b60008167ffffffffffffffff811115611954576119536122ab565b5b6040519080825280601f01601f1916602001820160405280156119865781602001600182028036833780820191505090505b5090505b60008514611a135760018261199f9190612cc5565b9150600a856119ae9190612ec3565b60306119ba919061284b565b60f81b8183815181106119d0576119cf612ef4565b5b60200101907effffffffffffffffffffffffffffffffffffffffffffffffffffffffffffff1916908160001a905350600a85611a0c9190612e92565b945061198a565b8093505050505b919050565b60008073ffffffffffffffffffffffffffffffffffffffff166002600084815260200190815260200160002060009054906101000a900473ffffffffffffffffffffffffffffffffffffffff1673ffffffffffffffffffffffffffffffffffffffff1614159050919050565b505050565b505050565b600073ffffffffffffffffffffffffffffffffffffffff168273ffffffffffffffffffffffffffffffffffffffff1603611b04576040517f08c379a0000000000000000000000000000000000000000000000000000000008152600401611afb90612f6f565b60405180910390fd5b611b0d81611a1f565b15611b4d576040517f08c379a0000000000000000000000000000000000000000000000000000000008152600401611b4490612fdb565b60405180910390fd5b611b5960008383611a8b565b6001600360008473ffffffffffffffffffffffffffffffffffffffff1673ffffffffffffffffffffffffffffffffffffffff1681526020019081526020016000206000828254611ba9919061284b565b92505081905550816002600083815260200190815260200160002060006101000a81548173ffffffffffffffffffffffffffffffffffffffff021916908373ffffffffffffffffffffffffffffffffffffffff160217905550808273ffffffffffffffffffffffffffffffffffffffff16600073ffffffffffffffffffffffffffffffffffffffff167fddf252ad1be2c89b69c2b068fc378daa952ba7f163c4a11628f55a4df523b3ef60405160405180910390a4611c6a60008383611a90565b5050565b6000611c8f8473ffffffffffffffffffffffffffffffffffffffff16611df5565b15611de8578373ffffffffffffffffffffffffffffffffffffffff1663150b7a02611cb861116b565b8786866040518563ffffffff1660e01b8152600401611cda949392919061303f565b6020604051808303816000875af1925050508015611d1657506040513d601f19601f82011682018060405250810190611d1391906130a0565b60015b611d98573d8060008114611d46576040519150601f19603f3d011682016040523d82523d6000602084013e611d4b565b606091505b506000815103611d90576040517f08c379a0000000000000000000000000000000000000000000000000000000008152600401611d8790612e43565b60405180910390fd5b805181602001fd5b63150b7a0260e01b7bffffffffffffffffffffffffffffffffffffffffffffffffffffffff1916817bffffffffffffffffffffffffffffffffffffffffffffffffffffffff191614915050611ded565b600190505b949350505050565b6000808273ffffffffffffffffffffffffffffffffffffffff163b119050919050565b6000604051905090565b600080fd5b600080fd5b60007fffffffff0000000000000000000000000000000000000000000000000000000082169050919050565b611e6181611e2c565b8114611e6c57600080fd5b50565b600081359050611e7e81611e58565b92915050565b600060208284031215611e9a57611e99611e22565b5b6000611ea884828501611e6f565b91505092915050565b60008115159050919050565b611ec681611eb1565b82525050565b6000602082019050611ee16000830184611ebd565b92915050565b600081519050919050565b600082825260208201905092915050565b60005b83811015611f21578082015181840152602081019050611f06565b60008484015250505050565b6000601f19601f8301169050919050565b6000611f4982611ee7565b611f538185611ef2565b9350611f63818560208601611f03565b611f6c81611f2d565b840191505092915050565b60006020820190508181036000830152611f918184611f3e565b905092915050565b6000819050919050565b611fac81611f99565b8114611fb757600080fd5b50565b600081359050611fc981611fa3565b92915050565b600060208284031215611fe557611fe4611e22565b5b6000611ff384828501611fba565b91505092915050565b600073ffffffffffffffffffffffffffffffffffffffff82169050919050565b600061202782611ffc565b9050919050565b6120378161201c565b82525050565b6000602082019050612052600083018461202e565b92915050565b6120618161201c565b811461206c57600080fd5b50565b60008135905061207e81612058565b92915050565b6000806040838503121561209b5761209a611e22565b5b60006120a98582860161206f565b92505060206120ba85828601611fba565b9150509250929050565b6120cd81611f99565b82525050565b60006020820190506120e860008301846120c4565b92915050565b60008060006060848603121561210757612106611e22565b5b60006121158682870161206f565b93505060206121268682870161206f565b925050604061213786828701611fba565b9150509250925092565b6000806040838503121561215857612157611e22565b5b600061216685828601611fba565b925050602061217785828601611fba565b9150509250929050565b60006020828403121561219757612196611e22565b5b60006121a58482850161206f565b91505092915050565b6000819050919050565b6121c1816121ae565b82525050565b60006080820190506121dc60008301876121b8565b6121e960208301866120c4565b6121f660408301856120c4565b61220360608301846120c4565b95945050505050565b600060408201905061222160008301856120c4565b61222e60208301846120c4565b9392505050565b61223e81611eb1565b811461224957600080fd5b50565b60008135905061225b81612235565b92915050565b6000806040838503121561227857612277611e22565b5b60006122868582860161206f565b92505060206122978582860161224c565b9150509250929050565b600080fd5b600080fd5b7f4e487b7100000000000000000000000000000000000000000000000000000000600052604160045260246000fd5b6122e382611f2d565b810181811067ffffffffffffffff82111715612302576123016122ab565b5b80604052505050565b6000612315611e18565b905061232182826122da565b919050565b600067ffffffffffffffff821115612341576123406122ab565b5b61234a82611f2d565b9050602081019050919050565b82818337600083830152505050565b600061237961237484612326565b61230b565b905082815260208101848484011115612395576123946122a6565b5b6123a0848285612357565b509392505050565b600082601f8301126123bd576123bc6122a1565b5b81356123cd848260208601612366565b91505092915050565b600080600080608085870312156123f0576123ef611e22565b5b60006123fe8782880161206f565b945050602061240f8782880161206f565b935050604061242087828801611fba565b925050606085013567ffffffffffffffff81111561244157612440611e27565b5b61244d878288016123a8565b91505092959194509250565b60008060006060848603121561247257612471611e22565b5b60006124808682870161206f565b935050602061249186828701611fba565b92505060406124a286828701611fba565b9150509250925092565b600080604083850312156124c3576124c2611e22565b5b60006124d18582860161206f565b92505060206124e28582860161206f565b9150509250929050565b7f4e487b7100000000000000000000000000000000000000000000000000000000600052602260045260246000fd5b6000600282049050600182168061253357607f821691505b602082108103612546576125456124ec565b5b50919050565b7f4552433732313a20617070726f76616c20746f2063757272656e74206f776e6560008201527f7200000000000000000000000000000000000000000000000000000000000000602082015250565b60006125a8602183611ef2565b91506125b38261254c565b604082019050919050565b600060208201905081810360008301526125d78161259b565b9050919050565b7f4552433732313a20617070726f76652063616c6c6572206973206e6f7420746f60008201527f6b656e206f776e6572206e6f7220617070726f76656420666f7220616c6c0000602082015250565b600061263a603e83611ef2565b9150612645826125de565b604082019050919050565b600060208201905081810360008301526126698161262d565b9050919050565b7f4552433732313a2063616c6c6572206973206e6f7420746f6b656e206f776e6560008201527f72206e6f7220617070726f766564000000000000000000000000000000000000602082015250565b60006126cc602e83611ef2565b91506126d782612670565b604082019050919050565b600060208201905081810360008301526126fb816126bf565b9050919050565b7f5449455220446f65736e27742045786973740000000000000000000000000000600082015250565b6000612738601283611ef2565b915061274382612702565b602082019050919050565b600060208201905081810360008301526127678161272b565b9050919050565b7f4e487b7100000000000000000000000000000000000000000000000000000000600052601160045260246000fd5b60006127a882611f99565b91506127b383611f99565b92508282026127c181611f99565b915082820484148315176127d8576127d761276e565b5b5092915050565b7f53656e642065786163742066756e647300000000000000000000000000000000600082015250565b6000612815601083611ef2565b9150612820826127df565b602082019050919050565b6000602082019050818103600083015261284481612808565b9050919050565b600061285682611f99565b915061286183611f99565b92508282019050808211156128795761287861276e565b5b92915050565b7f45786365656473206d6178000000000000000000000000000000000000000000600082015250565b60006128b5600b83611ef2565b91506128c08261287f565b602082019050919050565b600060208201905081810360008301526128e4816128a8565b9050919050565b7f4552433732313a20696e76616c696420746f6b656e2049440000000000000000600082015250565b6000612921601883611ef2565b915061292c826128eb565b602082019050919050565b6000602082019050818103600083015261295081612914565b9050919050565b7f4552433732313a2061646472657373207a65726f206973206e6f74206120766160008201527f6c6964206f776e65720000000000000000000000000000000000000000000000602082015250565b60006129b3602983611ef2565b91506129be82612957565b604082019050919050565b600060208201905081810360008301526129e2816129a6565b9050919050565b600082825260208201905092915050565b6000612a0683856129e9565b9350612a13838584612357565b612a1c83611f2d565b840190509392505050565b60006060820190508181036000830152612a428186886129fa565b9050612a5160208301856120c4565b612a5e60408301846120c4565b95945050505050565b6000612a7282611f99565b91507fffffffffffffffffffffffffffffffffffffffffffffffffffffffffffffffff8203612aa457612aa361276e565b5b600182019050919050565b600081905092915050565b6000612ac582611ee7565b612acf8185612aaf565b9350612adf818560208601611f03565b80840191505092915050565b6000612af78285612aba565b9150612b038284612aba565b91508190509392505050565b7f4f776e61626c653a206e6577206f776e657220697320746865207a65726f206160008201527f6464726573730000000000000000000000000000000000000000000000000000602082015250565b6000612b6b602683611ef2565b9150612b7682612b0f565b604082019050919050565b60006020820190508181036000830152612b9a81612b5e565b9050919050565b7f4552433732313a207472616e736665722066726f6d20696e636f72726563742060008201527f6f776e6572000000000000000000000000000000000000000000000000000000602082015250565b6000612bfd602583611ef2565b9150612c0882612ba1565b604082019050919050565b60006020820190508181036000830152612c2c81612bf0565b9050919050565b7f4552433732313a207472616e7366657220746f20746865207a65726f2061646460008201527f7265737300000000000000000000000000000000000000000000000000000000602082015250565b6000612c8f602483611ef2565b9150612c9a82612c33565b604082019050919050565b60006020820190508181036000830152612cbe81612c82565b9050919050565b6000612cd082611f99565b9150612cdb83611f99565b9250828203905081811115612cf357612cf261276e565b5b92915050565b7f4f776e61626c653a2063616c6c6572206973206e6f7420746865206f776e6572600082015250565b6000612d2f602083611ef2565b9150612d3a82612cf9565b602082019050919050565b60006020820190508181036000830152612d5e81612d22565b9050919050565b7f4552433732313a20617070726f766520746f2063616c6c657200000000000000600082015250565b6000612d9b601983611ef2565b9150612da682612d65565b602082019050919050565b60006020820190508181036000830152612dca81612d8e565b9050919050565b7f4552433732313a207472616e7366657220746f206e6f6e20455243373231526560008201527f63656976657220696d706c656d656e7465720000000000000000000000000000602082015250565b6000612e2d603283611ef2565b9150612e3882612dd1565b604082019050919050565b60006020820190508181036000830152612e5c81612e20565b9050919050565b7f4e487b7100000000000000000000000000000000000000000000000000000000600052601260045260246000fd5b6000612e9d82611f99565b9150612ea883611f99565b925082612eb857612eb7612e63565b5b828204905092915050565b6000612ece82611f99565b9150612ed983611f99565b925082612ee957612ee8612e63565b5b828206905092915050565b7f4e487b7100000000000000000000000000000000000000000000000000000000600052603260045260246000fd5b7f4552433732313a206d696e7420746f20746865207a65726f2061646472657373600082015250565b6000612f59602083611ef2565b9150612f6482612f23565b602082019050919050565b60006020820190508181036000830152612f8881612f4c565b9050919050565b7f4552433732313a20746f6b656e20616c7265616479206d696e74656400000000600082015250565b6000612fc5601c83611ef2565b9150612fd082612f8f565b602082019050919050565b60006020820190508181036000830152612ff481612fb8565b9050919050565b600081519050919050565b600061301182612ffb565b61301b81856129e9565b935061302b818560208601611f03565b61303481611f2d565b840191505092915050565b6000608082019050613054600083018761202e565b613061602083018661202e565b61306e60408301856120c4565b81810360608301526130808184613006565b905095945050505050565b60008151905061309a81611e58565b92915050565b6000602082840312156130b6576130b5611e22565b5b60006130c48482850161308b565b9150509291505056fea2646970667358221220f7bff786553a98797ed3ee3cb18514d744354a2f999c251023db2654a32c20c764736f6c63430008110033",
  "devdoc": {
    "kind": "dev",
    "methods": {
      "approve(address,uint256)": {
        "details": "See {IERC721-approve}."
      },
      "balanceOf(address)": {
        "details": "See {IERC721-balanceOf}."
      },
      "getApproved(uint256)": {
        "details": "See {IERC721-getApproved}."
      },
      "isApprovedForAll(address,address)": {
        "details": "See {IERC721-isApprovedForAll}."
      },
      "name()": {
        "details": "See {IERC721Metadata-name}."
      },
      "owner()": {
        "details": "Returns the address of the current owner."
      },
      "ownerOf(uint256)": {
        "details": "See {IERC721-ownerOf}."
      },
      "renounceOwnership()": {
        "details": "Leaves the contract without owner. It will not be possible to call `onlyOwner` functions anymore. Can only be called by the current owner. NOTE: Renouncing ownership will leave the contract without an owner, thereby removing any functionality that is only available to the owner."
      },
      "safeTransferFrom(address,address,uint256)": {
        "details": "See {IERC721-safeTransferFrom}."
      },
      "safeTransferFrom(address,address,uint256,bytes)": {
        "details": "See {IERC721-safeTransferFrom}."
      },
      "setApprovalForAll(address,bool)": {
        "details": "See {IERC721-setApprovalForAll}."
      },
      "supportsInterface(bytes4)": {
        "details": "See {IERC165-supportsInterface}."
      },
      "symbol()": {
        "details": "See {IERC721Metadata-symbol}."
      },
      "tokenURI(uint256)": {
        "details": "See {IERC721Metadata-tokenURI}."
      },
      "transferFrom(address,address,uint256)": {
        "details": "See {IERC721-transferFrom}."
      },
      "transferOwnership(address)": {
        "details": "Transfers ownership of the contract to a new account (`newOwner`). Can only be called by the current owner."
      }
    },
    "version": 1
  },
  "userdoc": {
    "kind": "user",
    "methods": {},
    "version": 1
  },
  "storageLayout": {
    "storage": [
      {
        "astId": 138,
        "contract": "contracts/NFTTicket.sol:NFTTicket",
        "label": "_name",
        "offset": 0,
        "slot": "0",
        "type": "t_string_storage"
      },
      {
        "astId": 140,
        "contract": "contracts/NFTTicket.sol:NFTTicket",
        "label": "_symbol",
        "offset": 0,
        "slot": "1",
        "type": "t_string_storage"
      },
      {
        "astId": 144,
        "contract": "contracts/NFTTicket.sol:NFTTicket",
        "label": "_owners",
        "offset": 0,
        "slot": "2",
        "type": "t_mapping(t_uint256,t_address)"
      },
      {
        "astId": 148,
        "contract": "contracts/NFTTicket.sol:NFTTicket",
        "label": "_balances",
        "offset": 0,
        "slot": "3",
        "type": "t_mapping(t_address,t_uint256)"
      },
      {
        "astId": 152,
        "contract": "contracts/NFTTicket.sol:NFTTicket",
        "label": "_tokenApprovals",
        "offset": 0,
        "slot": "4",
        "type": "t_mapping(t_uint256,t_address)"
      },
      {
        "astId": 158,
        "contract": "contracts/NFTTicket.sol:NFTTicket",
        "label": "_operatorApprovals",
        "offset": 0,
        "slot": "5",
        "type": "t_mapping(t_address,t_mapping(t_address,t_bool))"
      },
      {
        "astId": 7,
        "contract": "contracts/NFTTicket.sol:NFTTicket",
        "label": "_owner",
        "offset": 0,
        "slot": "6",
        "type": "t_address"
      },
      {
        "astId": 1738,
        "contract": "contracts/NFTTicket.sol:NFTTicket",
        "label": "tierCounter",
        "offset": 0,
        "slot": "7",
        "type": "t_uint256"
      },
      {
        "astId": 1743,
        "contract": "contracts/NFTTicket.sol:NFTTicket",
        "label": "ticketTiers",
        "offset": 0,
        "slot": "8",
        "type": "t_mapping(t_uint256,t_struct(Tier)1736_storage)"
      },
      {
        "astId": 1747,
        "contract": "contracts/NFTTicket.sol:NFTTicket",
        "label": "isUsed",
        "offset": 0,
        "slot": "9",
        "type": "t_mapping(t_uint256,t_bool)"
      },
      {
        "astId": 1749,
        "contract": "contracts/NFTTicket.sol:NFTTicket",
        "label": "_tokenCounter",
        "offset": 0,
        "slot": "10",
        "type": "t_uint256"
      }
    ],
    "types": {
      "t_address": {
        "encoding": "inplace",
        "label": "address",
        "numberOfBytes": "20"
      },
      "t_bool": {
        "encoding": "inplace",
        "label": "bool",
        "numberOfBytes": "1"
      },
      "t_bytes32": {
        "encoding": "inplace",
        "label": "bytes32",
        "numberOfBytes": "32"
      },
      "t_mapping(t_address,t_bool)": {
        "encoding": "mapping",
        "key": "t_address",
        "label": "mapping(address => bool)",
        "numberOfBytes": "32",
        "value": "t_bool"
      },
      "t_mapping(t_address,t_mapping(t_address,t_bool))": {
        "encoding": "mapping",
        "key": "t_address",
        "label": "mapping(address => mapping(address => bool))",
        "numberOfBytes": "32",
        "value": "t_mapping(t_address,t_bool)"
      },
      "t_mapping(t_address,t_uint256)": {
        "encoding": "mapping",
        "key": "t_address",
        "label": "mapping(address => uint256)",
        "numberOfBytes": "32",
        "value": "t_uint256"
      },
      "t_mapping(t_uint256,t_address)": {
        "encoding": "mapping",
        "key": "t_uint256",
        "label": "mapping(uint256 => address)",
        "numberOfBytes": "32",
        "value": "t_address"
      },
      "t_mapping(t_uint256,t_bool)": {
        "encoding": "mapping",
        "key": "t_uint256",
        "label": "mapping(uint256 => bool)",
        "numberOfBytes": "32",
        "value": "t_bool"
      },
      "t_mapping(t_uint256,t_struct(Tier)1736_storage)": {
        "encoding": "mapping",
        "key": "t_uint256",
        "label": "mapping(uint256 => struct NFTTicket.Tier)",
        "numberOfBytes": "32",
        "value": "t_struct(Tier)1736_storage"
      },
      "t_string_storage": {
        "encoding": "bytes",
        "label": "string",
        "numberOfBytes": "32"
      },
      "t_struct(Tier)1736_storage": {
        "encoding": "inplace",
        "label": "struct NFTTicket.Tier",
        "members": [
          {
            "astId": 1729,
            "contract": "contracts/NFTTicket.sol:NFTTicket",
            "label": "tierId",
            "offset": 0,
            "slot": "0",
            "type": "t_bytes32"
          },
          {
            "astId": 1731,
            "contract": "contracts/NFTTicket.sol:NFTTicket",
            "label": "tierPrice",
            "offset": 0,
            "slot": "1",
            "type": "t_uint256"
          },
          {
            "astId": 1733,
            "contract": "contracts/NFTTicket.sol:NFTTicket",
            "label": "tierMaxQuantity",
            "offset": 0,
            "slot": "2",
            "type": "t_uint256"
          },
          {
            "astId": 1735,
            "contract": "contracts/NFTTicket.sol:NFTTicket",
            "label": "mintedSupply",
            "offset": 0,
            "slot": "3",
            "type": "t_uint256"
          }
        ],
        "numberOfBytes": "128"
      },
      "t_uint256": {
        "encoding": "inplace",
        "label": "uint256",
        "numberOfBytes": "32"
      }
    }
  }
}